:020000040800F2
:20000000FF7F0020F5F4000809F30008F5F200080BF300080DF300080FF300080000000046
:20002000000000000000000000000000816A000811F3000800000000116B0008556B000875
:200040003DF500083DF500083DF500083DF500083DF500083DF500088DF3000893F300082E
:2000600099F300089FF30008A5F300083DF500083DF500083DF500083DF500083DF5000890
:200080003DF500083DF500083DF500083DF5000813F300083DF500083DF50008ABF3000850
:2000A000000000003DF500083DF500083DF500083DF500083DF500083DF500083DF50008AA
:2000C0003DF500083DF500083DF500083DF500083DF5000815F300083DF500083DF500087A
:2000E000D3F3000889F300083DF5000871F300087DF3000800000000000000000000000090
:200100000000000000000000000000000000000000000000000000000000000000000000DF
:200120000000000000000000000000000000000000000000000000005FF808F1000000006F
:2001400010B5054C237833B9044B13B10448AFF300800123237010BD740100200000000068
:20016000A40B010808B5034B1BB103490348AFF3008008BD0000000078010020A40B010821
:2001800081F0004102E000BF83F0004330B54FEA41044FEA430594EA050F08BF90EA020F8E
:2001A0001FBF54EA000C55EA020C7FEA645C7FEA655C00F0E2804FEA5454D4EB5555B8BF64
:2001C0006D420CDD2C4480EA020281EA030382EA000083EA010180EA020281EA0303362D1B
:2001E00088BF30BD11F0004F4FEA01314FF4801C4CEA113102D0404261EB410113F0004F85
:200200004FEA03334CEA133302D0524263EB430394EA050F00F0A780A4F10104D5F1200EC2
:200220000DDB02FA0EFC22FA05F2801841F1000103FA0EF2801843FA05F359410EE0A5F10A
:2002400020050EF1200E012A03FA0EFC28BF4CF0020C43FA05F3C01851EBE37101F0004516
:2002600007D54FF0000EDCF1000C7EEB00006EEB0101B1F5801F1BD3B1F5001F0CD3490890
:200280005FEA30004FEA3C0C04F101044FEA445212F5800F80F09A80BCF1004F08BF5FEA6F
:2002A000500C50F1000041EB045141EA050130BD5FEA4C0C404141EB010111F4801FA4F179
:2002C0000104E9D191F0000F04BF01460020B1FA81F308BF2033A3F10B03B3F120020CDA1E
:2002E0000C3208DD02F1140CC2F10C0201FA0CF021FA02F10CE002F11402D8BFC2F1200C97
:2003000001FA02F120FA0CFCDCBF41EA0C019040E41AA2BF01EB0451294330BD6FEA0404D0
:200320001F3C1CDA0C340EDC04F11404C4F1200220FA04F001FA02F340EA030021FA04F321
:2003400045EA030130BDC4F10C04C4F1200220FA02F001FA04F340EA0300294630BD21FA3F
:2003600004F0294630BD94F0000F83F4801306BF81F480110134013D4EE77FEA645C18BF1D
:200380007FEA655C29D094EA050F08BF90EA020F05D054EA000C04BF1946104630BD91EA57
:2003A000030F1EBF0021002030BD5FEA545C05D14000494128BF41F0004130BD14F58004B4
:2003C0003CBF01F5801130BD01F0004545F0FE4141F470014FF0000030BD7FEA645C1ABF30
:2003E000194610467FEA655C1CBF0B46024650EA013406BF52EA033591EA030F41F400211F
:2004000030BD00BF90F0000F04BF0021704730B54FF4806404F132044FF000054FF000014B
:2004200050E700BF90F0000F04BF0021704730B54FF4806404F1320410F0004548BF404297
:200440004FF000013EE700BF42004FEAE2014FEA31014FEA02701FBF12F07F4393F07F4F11
:2004600081F06051704732F07F4208BF704793F07F4F04BF41F40021704730B54FF4607425
:2004800001F0004521F000411CE700BF50EA010208BF704730B54FF000050AE050EA010207
:2004A00008BF704730B511F0004502D5404261EB41014FF4806404F132045FEA915C3FF4F1
:2004C000D8AE4FF003025FEADC0C18BF03325FEADC0C18BF033202EBDC02C2F1200300FA3D
:2004E00003FC20FA02F001FA03FE40EA0E0021FA02F11444BDE600BF70B54FF0FF0C4CF446
:20050000E06C1CEA11541DBF1CEA135594EA0C0F95EA0C0F00F0DEF82C4481EA030621EAF2
:200520004C5123EA4C5350EA013518BF52EA033541F4801143F4801338D0A0FB02CE4FF075
:200540000005E1FB02E506F00042E0FB03E54FF00006E1FB03569CF0000F18BF4EF0010E9F
:20056000A4F1FF04B6F5007F64F5407404D25FEA4E0E6D4146EB060642EAC62141EA555162
:200580004FEAC52040EA5E504FEACE2EB4F1FD0C88BFBCF5E06F1ED8BEF1004F08BF5FEA37
:2005A000500E50F1000041EB045170BD06F0004646EA010140EA020081EA0301B4EB5C04E6
:2005C000C2BFD4EB0C0541EA045170BD41F480114FF0000E013C00F3AB8014F1360FDEBFC8
:2005E000002001F0004170BDC4F10004203C35DA0C341BDC04F11404C4F1200500FA05F348
:2006000020FA04F001FA05F240EA020001F0004221F0004110EBD37021FA04F642EB0601A2
:200620005EEA430E08BF20EAD37070BDC4F10C04C4F1200500FA04F320FA05F001FA04F250
:2006400040EA020001F0004110EBD37041F100015EEA430E08BF20EAD37070BDC4F1200517
:2006600000FA05F24EEA020E20FA04F301FA05F243EA020321FA04F001F0004121FA04F2BA
:2006800020EA020000EBD3705EEA430E08BF20EAD37070BD94F0000F0FD101F0004640005C
:2006A00041EB010111F4801F08BF013CF7D041EA060195F0000F18BF704703F000465200BE
:2006C00043EB030313F4801F08BF013DF7D043EA0603704794EA0C0F0CEA135518BF95EA3A
:2006E0000C0F0CD050EA410618BF52EA4306D1D181EA030101F000414FF0000070BD50EA3D
:20070000410606BF1046194652EA430619D094EA0C0F02D150EA013613D195EA0C0F05D179
:2007200052EA03361CBF104619460AD181EA030101F0004141F0FE4141F470014FF00000E3
:2007400070BD41F0FE4141F4780170BD70B54FF0FF0C4CF4E06C1CEA11541DBF1CEA135571
:2007600094EA0C0F95EA0C0F00F0A7F8A4EB050481EA030E52EA03354FEA013100F08880CC
:200780004FEA03334FF0805545EA131343EA12634FEA022245EA111545EA10654FEA00262A
:2007A0000EF000419D4208BF964244F1FD0404F5407402D25B084FEA3202B61A65EB0305CD
:2007C0005B084FEA32024FF480104FF4002CB6EB020E75EB030E22BFB61A754640EA0C0043
:2007E0005B084FEA3202B6EB020E75EB030E22BFB61A754640EA5C005B084FEA3202B6EBA4
:20080000020E75EB030E22BFB61A754640EA9C005B084FEA3202B6EB020E75EB030E22BF52
:20082000B61A754640EADC0055EA060E18D04FEA051545EA16754FEA06164FEAC30343EA5E
:2008400052734FEAC2025FEA1C1CC0D111F4801F0BD141EA00014FF000004FF0004CB6E7B1
:2008600011F4801F04BF01430020B4F1FD0C88BFBCF5E06F3FF6AFAEB5EB030C04BFB6EB13
:20088000020C5FEA500C50F1000041EB045170BD0EF0004E4EEA113114EB5C04C2BFD4EB51
:2008A0000C0541EA045170BD41F480114FF0000E013C90E645EA060E8DE60CEA135594EA22
:2008C0000C0F08BF95EA0C0F3FF43BAF94EA0C0F0AD150EA01347FF434AF95EA0C0F7FF439
:2008E00025AF104619462CE795EA0C0F06D152EA03353FF4FDAE1046194622E750EA41065A
:2009000018BF52EA43067FF4C5AE50EA41047FF40DAF52EA43057FF4EBAE12E74FF0FF3CE4
:2009200006E000BF4FF0010C02E000BF4FF0010C4DF804CD4FEA410C7FEA6C5C4FEA430C84
:2009400018BF7FEA6C5C1BD001B050EA410C0CBF52EA430C91EA030F02BF90EA020F00201D
:20096000704710F1000F91EA030F58BF994208BF90422CBFD8176FEAE37040F0010070472A
:200980004FEA410C7FEA6C5C02D150EA013C07D14FEA430C7FEA6C5CD6D152EA033CD3D000
:2009A0005DF8040B704700BF8446104662468C461946634600E000BF01B5FFF7B7FF002892
:2009C00048BF10F1000F01BD4DF808EDFFF7F4FF0CBF012000205DF808FB00BF4DF808EDC2
:2009E000FFF7EAFF34BF012000205DF808FB00BF4DF808EDFFF7E0FF94BF012000205DF8D5
:200A000008FB00BF4DF808EDFFF7CEFF94BF012000205DF808FB00BF4DF808EDFFF7C4FF79
:200A200034BF012000205DF808FB00BF4FEA410212F5001215D211D56FF47873B3EB625269
:200A400012D94FEAC12343F0004343EA505311F0004F23FA02F018BF404270474FF000009A
:200A6000704750EA013005D111F0004008BF6FF0004070474FF00000704700BF4A0011D23E
:200A800012F5001211D20DD56FF47873B3EB62520ED44FEAC12343F0004343EA505323FA76
:200AA00002F070474FF00000704750EA013002D14FF0FF3070474FF00000704780F000408E
:200AC00002E000BF81F0004142001FBF5FEA410392EA030F7FEA226C7FEA236C6AD04FEA26
:200AE0001262D2EB1363C1BFD218414048404140B8BF5B42192B88BF704710F0004F40F482
:200B0000000020F07F4018BF404211F0004F41F4000121F07F4118BF494292EA030F3FD057
:200B2000A2F1010241FA03FC10EB0C00C3F1200301FA03F100F0004302D5494260EB4000F8
:200B4000B0F5000F13D3B0F1807F06D340084FEA310102F10102FE2A51D2B1F1004F40EB72
:200B6000C25008BF20F0010040EA03007047490040EB000010F4000FA2F10102EDD1B0FA22
:200B800080FCACF1080CB2EB0C0200FA0CF0AABF00EBC25052421843BCBFD0401843704795
:200BA00092F0000F81F4000106BF80F400000132013BB5E74FEA41037FEA226C18BF7FEA36
:200BC000236C21D092EA030F04D092F0000F08BF0846704790EA010F1CBF0020704712F098
:200BE0007F4F04D1400028BF40F00040704712F100723CBF00F50000704700F0004343F082
:200C0000FE4040F4000070477FEA226216BF08467FEA23630146420206BF5FEA412390EA35
:200C2000010F40F4800070474FF0000304E000BF10F0004348BF40425FEA000C08BF7047B5
:200C400043F0964301464FF000001CE050EA010208BF70474FF000030AE000BF50EA010223
:200C600008BF704711F0004302D5404261EB41015FEA010C02BF84460146002043F0B64357
:200C800008BFA3F18053A3F50003BCFA8CF2083AA3EBC25310DB01FA02FC634400FA02FCEF
:200CA000C2F12002BCF1004F20FA02F243EB020008BF20F00100704702F1200201FA02FC88
:200CC000C2F1200250EA4C0021FA02F243EB020008BF20EADC70704753B94AB9002908BFA7
:200CE00000281CBF4FF0FF314FF0FF3000F074B9ADF1080C6DE904CE00F006F8DDF804E076
:200D0000DDE9022304B070472DE9F0478C460446089E002B4BD18A42154667D9B2FA82F2A0
:200D20004AB1C2F1200701FA02F320FA07F7954047EA030C94404FEA154EBCFBFEF71FFA8C
:200D400085F80EFB17C307FB08F9210C41EA0343994509D9EB1807F1FF3180F01C819945BC
:200D600040F21981023F2B44A3EB0903B3FBFEF00EFB103300FB08F1A4B244EA0344A142D3
:200D800009D92C1900F1FF3380F00781A14240F2048102382C4440EA07400027641A1EB1E8
:200DA0000023D440C6E900433946BDE8F0878B4209D9002E00F0EC800027C6E900013846E1
:200DC0003946BDE8F087B3FA83F7002F48D18B4202D3824200F2FB80841A61EB0303012025
:200DE0009C46002EE0D0C6E9004CDDE702B9FFDEB2FA82F2002A40F08F800127491B4FEA8E
:200E000015481FFA85F9B1FBF8FE08FB1E1109FB0EF04FEA144C4CEA0143984207D9EB1838
:200E20000EF1FF3102D2984200F2CD808E461B1AB3FBF8F008FB103309FB00F9A4B244EA30
:200E40000344A14507D92C1900F1FF3302D2A14500F2B6801846A4EB090440EA0E409EE744
:200E6000C7F12005BB4022FA05FC4CEA030C21FA05F44FEA1C4EB4FBFEF91FFA8CF80EFB35
:200E8000194420FA05F3B94009FB08FA19430B0C43EA0444A24502FA07F200FA07F30BD948
:200EA0001CEB040409F1FF3080F08880A24540F28580A9F102096444A4EB0A04B4FBFEF0DD
:200EC0000EFB104400FB08FA89B241EA0444A24508D91CEB040400F1FF316BD2A24569D9AC
:200EE0000238644440EA0940A0FB0289A4EB0A044C454146CE4654D351D0002E69D05A1A8B
:200F000064EB0E0404FA05F522FA07F3FC401D43C6E90054002747E79540C2F1200321FAA8
:200F200003F04FEA1548B0FBF8F71FFA85F908FB170024FA03F3914007FB09FC0B43190C7E
:200F400041EA00418C4504FA02F407D9691807F1FF3031D28C452FD9023F2944A1EB0C01B5
:200F6000B1FBF8F008FB101C00FB09FE99B241EA0C418E4507D9691800F1FF3318D28E45D5
:200F800016D902382944A1EB0E0140EA07473AE73746304608E70F46E6E61846FBE64345BD
:200FA000ABD2B8EB020169EB0C0201389646A4E71846E8E7084695E70746CFE781467BE7E9
:200FC00002382C4447E7AEF1020E2B442FE7384607E73746E8E600BF704700BF0020704742
:200FE00070470120704770B50446092000F0CCF905465A2000F0C8F90E2CA8BF0E24064680
:2010000044EAE47105F0700501312943C9B2092000F06AF93146BDE870405A2000F064B9FB
:2010200010B586B01422002101A80EF059FB104800F006F902210F4B0F4CCDE90231032335
:2010400001AA2046049305F043FF01AA20464FF4806105F03DFF01AA20464FF4006105F0A1
:2010600037FF01AA8021204605F032FF06B010BD00000020000011100004024010B586B05D
:201080001422002101A80EF02BFB02210D4C0E4B01AA2046CDE9023105F01AFF01AA20463E
:2010A0004FF4806105F014FF01AA20464FF4006105F00EFF01AA8021204605F009FF06B0E8
:2010C00010BD00BF000402400000111070B505460E4C036805222046022105F049FF6B6828
:2010E000204605224FF4806105F042FFAB68204605224FF4006105F03BFFEB682046BDE838
:2011000070400522802105F033BF00BF00040240032810B50E4C0DD1012210210D4805F0A5
:201120005BFF00224FF400510B4805F055FF0123237010BD00221021064805F04DFF01227A
:201140004FF40051044805F047FF0023F0E700BF70620020000002400008024070B586B0E2
:201160001422002101A80EF0BBFA012403230E4E0E4D01AA30461021CDE90343029405F0E1
:20118000A7FE01AA28464FF4005105F0A1FE30460022102105F020FF22464FF40051284622
:2011A00005F01AFF06B070BD00000240000802407FB51422002101A80EF092FA032301AA23
:2011C00010210648029305F083FE01AA4FF40051034805F07DFE07B05DF804FB000002403E
:2011E00000080240054B1A78824205D0187008B9FFF7B4BFFFF7DCBF704700BF90010020C0
:20120000002310B5074951F83340DA00844203D80A449468844203D80133152BF3D1FEE757
:20122000107910BDB80C0108044B5A792AB993F8302012B9012283F8302070477062002049
:20124000014B1860704700BF94010020014B1879704700BF7062002030B587B014220021E7
:2012600001A80EF03DFA012503230E4C01AA204604210493029505F02BFE2A46042120466D
:2012800005F0AAFE28460DF0BBFD002301AA04212046029305F01CFE06200DF0B1FD07B009
:2012A00030BD00BF0000024070B506460C461546012100220B4805F08FFE46F0800006F05D
:2012C00013F9013C2544AC4206D1BDE8704001220448114605F080BE14F8010F06F004F93A
:2012E000F1E700BF0004024007B502AB03F8011D01221946FFF7D8FF03B05DF804FB000039
:20130000104B10B5986043F60953B0FBF3F241F6846403FB120004EB0024B4FBF3F404EBC9
:201320000224C4F307410620FFF7DEFFC4F307210720FFF7D9FFE1B20820BDE81040FFF715
:20134000D3BF00BF7062002070B506460C461546012100220B4805F03FFE06F07F0006F0F8
:20136000C3F8013C2544AC4206D1BDE8704001220448114605F030BE002006F0B5F804F88A
:20138000010FF0E70004024007B501220DF10701FFF7DAFF9DF8070003B05DF804FB0000C9
:2013A0002DE9F84F884618B1012853D000204AE06B4C2720258CFFF7E7FF20F0F8000130DF
:2013C0002844FFF72FF894F822300022002B3CD1644BFEF7DBFE064630200F46FFF7D4FF15
:2013E00030F0F9030CBF00235E4B002230463946FEF7CCFE064640460F46FFF713F80246F4
:201400000B4630463946FEF7C1FE94F824300022EBB90023FEF7BAFE0022534BFFF76CF842
:201420000646E0690F46FEF7EDFF02460B4630463946FFF78BF900224C4BFFF75DF80FF0D6
:201440006BFBFFF71BFBBDE8F88F0023C1E74FF08043DFE7424C626C022A77D8444B03EB07
:20146000C203D3E900670120A56CA840FEF7DAFF02460B4630463946FFF768F902460B461E
:2014800000203849FFF762F906460F46B4F84E00FEF7C8FF0022374BFEF778FE32463B46FB
:2014A000FFF72AF894F8503082468B4694F85200A900002BC1F11C0101EB001114BF1420EA
:2014C000002001EBC801081AFEF79CFF94F84C308046002B14BF02200020281A80008946E6
:2014E000FEF790FF02460B4640464946FFF72EF90FF00EFA8046894694F84D000430FEF7FF
:2015000091FF42464B46FEF7F7FF0022002304460D46FFF781FAE0B10022134B20462946FE
:20152000FEF734FE32463B46FEF7E6FF52465B46FEF72CFE00220D4BFEF7DEFF06A3D3E9A8
:201540000023FEF723FE0FF063FA7AE70026002789E700200449E5E72B8716D9CEF7EF3F0B
:20156000706200200000F03F0000204000408F40A00C01080000114008B520B101280AD044
:201580004FF0FF3006E01120FFF7FEFEC0F34700404200B208BD1B20FFF7F6FE8B38F8E71A
:2015A00038B50E4D04462B6868B901201B6998470120FFF7E9FE00F0F80121430120BDE850
:2015C0003840FFF791BE1B68012098472B6800201B6998472B6820465B69E8E79401002074
:2015E00008B509480BF0B4FF08480BF0B1FF0020FFF7D6FF064B00201B681B6898470022D1
:20160000044B1A7108BD00BF08630020D8620020940100207062002008B506480BF098FF43
:2016200005480BF095FF0120FFF7BAFF0022034B1A7108BD08630020D86200207062002067
:20164000F8B54A4C07464A480BF082FF65791DB1012D43D0002622E0402094F82660FFF76F
:2016600093FE00F0030141F00C014020FFF73CFE4120FFF789FE60F03E01C9B24120FFF7D8
:2016800033FE3520FFF780FE00F03F0084F83E001E210D20FFF728FE2586A58765874FF4D9
:2016A0008072002133480EF01BF80123237137B1314839460BF07CFF2F480BF0C3FE63796E
:2016C000002B4AD10520FFF76BFFE16A2B480BF06FFFBDE8F84029480BF0B4BE94F855304C
:2016E00033202BB3FFF750FE40F04101C9B23320FFF7FAFD19213B20FFF7F6FD94F85330BB
:2017000094F85660FBB11D211120FFF7EDFD4020FFF73AFE00F033014020FFF7E5FD002181
:201720000F20FFF7E1FD00210D20FFF7DDFDB6E7FFF72AFE00F0BE0141F001013320FFF7A2
:20174000D3FD1D21D7E71F211120FFF7CDFD4020FFF71AFE00F03F01DEE726B10520BDE888
:20176000F840FFF71DBF0620F9E700BF70620020D86200209C01002008630020F062002094
:2017800010B5044625480BF0E3FE2146244C25480BF00EFF63795BB1012B23D00223214810
:2017A00023710BF04FFEBDE810400320FFF7F8BE4020FFF7E9FD00F0030141F010014020B7
:2017C000FFF792FD4120FFF7DFFD00F03E014120FFF78AFD3520FFF7D7FD00F03F0084F87A
:2017E0003E00DBE794F8533073B1F5211120FFF77BFD4020FFF7C8FD00F0330141F0400150
:201800004020FFF771FDC9E7F7211120FFF76CFD4020FFF7B9FD00F03F01EFE7086300200F
:2018200070620020D862002010B50C4C6379012B12D1FA211120FFF757FD4020FFF7A4FDC7
:2018400000F0FC014020FFF74FFD032307202371BDE81040FFF7A4BE10BD00BF706200204D
:2018600010B504460120FFF78FFD10F0800F14BF01220022174B5A715A79A24229D0012C05
:201880005C714FF0000013D0FFF78AFE0120FFF77BFD00F07F010120FFF726FD0021402021
:2018A000FFF722FD3021BDE810404120FFF71CBDFFF776FE2046FFF767FD60F07F01C9B228
:2018C0002046FFF711FD00214020FFF70DFD0021E9E710BD706200201B4B70B51B49186006
:2018E0001B480BF0A5FD1B4D18491B480BF0A0FD16491A480BF09CFD2B6801201B689847B9
:20190000FFF7AAFC0020FFF74BFE2B6814489B689847144C04F133062078FFF7A1FF033408
:2019200014F8011C14F8020CFFF7DEFCB442F3D10020FFF795FF00220B4B1A712B685B68D7
:201940009847023070BD00BF98010020B5240008D86200209401002008630020F0620020E4
:2019600018000020680D010870620020F8B51C46134B06461B790D461746F3B9FFF770FFB1
:201980002846FFF7BDFC0520FFF70AFE01200DF037FA0BF01EFE054628460BF021FEA042EC
:2019A00004D30124FFF71CFE2046F8BD3046FFF7E3FDB842F0DD0024F4E70024F4E700BF30
:2019C0007062002038B500240120FFF749FFFF211120FFF789FC0520FFF7E2FD2546012053
:2019E0000DF00EFA2C20FFF7CFFC00F00100A0400134202C45EA0005F1D1FFF7F1FD28463B
:201A000038BD0000000000002DE9F04F89B01D46129B0E460393BDF850309DF8601002937A
:201A200014469DF868309DF86420049306920090BDF84C709DF854809DF858909DF85CB04F
:201A400007919DF86CA0FFF70BFF009A049B3AB1012ADDE9062100F0838009B0BDE8F08F41
:201A6000894D039AEC61AA6185F8253020466E6185F8228085F8239085F824B085F826A0B1
:201A80002F84FEF7BFFCCDE9000102460B4600207E49FEF75BFE00227D4BFEF72DFDCDE99F
:201AA00004010298FEF7BEFC02460B46DDE90401FEF722FD0022774BFEF71EFDFEF7DEFF9A
:201AC000DDE90023E8626EA1D1E90001FEF73EFEFEF7D4FF84B2210A0220FFF705FCE1B203
:201AE0000320FFF701FC3046FFF78AFB01461220FFF7FAFB0398FFF783FB01461320FFF7FC
:201B0000F3FB390A2520FFF7EFFBF9B22620FFF7EBFBB8F1000F21D049463220FFF7E4FB43
:201B20003020FFF731FCB8F1000F14BF00216FF07F0100F06F0040EA0B100143C9B23020F4
:201B4000FFF7D2FB3120FFF71FFC40F040013120C9B209B0BDE8F04FFFF7C6BBFF21DCE72C
:201B600049480C2C80F856A0C0E9116480F84D50A0F84E7080F8508080F8519080F852B08A
:201B800080F8531080F8542080F85530824671D8052C61D926B9A4F10B03012B5DD803E03F
:201BA000012E5AD10C2C58D101231D208AF84C30FFF7EAFB9AF84C101D2041EA4B0141EA63
:201BC000880141EAC50141EA8611C9B2FFF78CFB1E20FFF7D9FB029B00F00C00C3F3012158
:201BE000014341EA0411C9B21E20FFF77DFB9DF808101F20FFF778FB390A2020FFF774FBFD
:201C0000F9B22120FFF770FBB8F1000F03D049462220FFF769FB9AF853306BB14B20FFF72F
:201C2000B3FB60F07F01C9B24B20FFF75DFB9AF854102420FFF758FB062C4FF031000ED1EE
:201C4000FFF7A2FB00F0F80141F005013120FFF74BFB0C2137207CE706240023A5E7FFF78E
:201C600093FB00F0F80141F003013120FFF73CFB0A21EFE70C24012E90E700BFAFF3008082
:201C80000000000080847E41706200200000F03F0000204000408F402DE9F04F8946834604
:201CA00087B01D469DF85430059201939DF85830109C03939DF85C309DF844A00493189B03
:201CC000BDF8486002939DF84C709DF85080FFF7C7FD794948460968C9688847DDE90432E5
:201CE000BBF1000F05D0BBF1010F5FD007B0BDE8F08F7249104681F82530029BC1E904253F
:201D0000CC6181F824808B6281F80C900E8481F82270FEF777FB64A3D3E90023FEF716FD85
:201D2000FEF7ACFE85B2290A0420FFF7DDFAE9B20520FFF7D9FA2046FEF764FB02460B46CD
:201D40005BA1D1E90001FEF701FDFEF797FE84B2210A0220FFF7C8FAE1B20320FFF7C4FAAA
:201D6000310A2520FFF7C0FAF1B22620FFF7BCFA3020FFF709FB002F14BF00216FF07F0152
:201D800000F06F0040EA081841EA0801C9B23020FFF7AAFA3120FFF7F7FA40F04001312007
:201DA000C9B207B0BDE8F04FFFF79EBA434A019982F8553082F85310029B03990C2C82F8D1
:201DC0004090C2E9115482F84DA0A2F84E6082F8507082F8541082F852809365914660D809
:201DE000052C50D925B9A4F10B03012B4CD803E0012D49D10C2C47D1012389F84C30019B80
:201E00006BB14B20FFF7C0FA60F07F01C9B24B20FFF76AFA99F854102420FFF765FA1D20B0
:201E2000FFF7B2FA99F84C101D2041EA480141EA870141EACA0141EA8511C9B2FFF754FA39
:201E40001E20FFF7A1FA00F00F0141EA0411C9B21E20FFF749FA310A2020FFF745FA212090
:201E6000F1B2FFF741FA062C4FF031000ED1FFF78BFA00F0F80141F005013120FFF734FAFD
:201E80000C2137208DE706240023B6E7FFF77CFA00F0F80141F003013120FFF725FA0A2145
:201EA000EFE70C24012DA1E70000000080844E400000000080847E4194010020706200206A
:201EC00030B54FF47A748BB054430D46FFF718FA00230522CDE901324FF49652CDE9063372
:201EE000CDE90433039318462946009208941A46FFF7D2FE3120FFF747FA00F0BF013120B5
:201F0000FFF7F2F90C4DF0214020FFF7EDF9A0214120FFF7E9F9214628460BF049FB022208
:201F2000064B28461A710BF08DFA03200BB0BDE83040FFF735BB00BFD862002070620020F1
:201F400070B52B4C2179012902D0022947D070BD6379CBB1012BFAD194F85330002BF6D091
:201F600002211220FFF7C0F9224B1B68002BEED05C69002CEBD01C20FFF706FA2346BDE898
:201F8000704000F03F00184784F83010258E012DDDD119480BF0DCFA112084F83150FFF762
:201FA000F3F94008404284F832001B20FFF7ECF905461C20FFF7E8F943F6095340EA052065
:201FC000C2B25A43000A4343803203EB12230C206363FFF7D9F9400984F83800B7E763795A
:201FE000012BB4D194F85330002BB0D0B9E700BF7062002098010020F0620020114B70B579
:020000040800F2
:202000005D79012D1CD11220FFF7BEF910F001060D4C0BD005211220FFF766F923687BB151
:202020009B696BB12846BDE87040184704211220FFF75AF923681BB19B690BB13046F2E758
:2020400070BD00BF70620020980100200A4601460020FFF729B9000037B5394C05466379C2
:202060008DF807101BB1012B2FD000201DE0A3879DF8071094F822306187D3B901210DF168
:202080000700FFF7E3FF9DF80720531E3F2B14D884F83F20284694F83F10FFF7D7FFA28FBD
:2020A00094F83F30A06A1344A387FFF769FB03B030BD3220FFF718F9E5E7294621480BF0A8
:2020C00036FC202384F83F30E4E794F8553033205BB3FFF759F900F0BE013320FFF704F926
:2020E00019213B20FFF700F99DF80710222084F86410FFF7F9F800210E20FFF7F5F8002144
:202100000D20FFF7F1F80120FFF73EF930F0F80304D1FFF781FA01200CF072FE28469DF874
:202120000710FFF793FFA06DBFE7FFF72DF900F0BE0141F001013320FFF7D6F81D21D0E743
:20214000706200209C0100200A4601460020FFF7FBB80000002373B5804E8DF807303379EF
:202160003446012B04D0022B00F0E48002B070BD737933B3012BF9D140211220FFF7B4F888
:202180001220FFF701F98DF807009DF80730744D13F0200F00F08A8020211220FFF7A4F8D3
:2021A00096F8563003B933716E480BF0D1F92B68002BDBD01B69002BD8D002B0BDE8704069
:2021C000184796F82430664D8BB33F20FFF7DCF88DF807009DF807309B0728D40B213E2024
:2021E000FFF782F810213F20FFF77EF85D480BF0AFF996F826606EB95B480BF0A9F9267119
:202200002B6813B11B6903B1984700232386A3876387ABE70D20FFF7B7F840F04001C9B220
:202220000D20FFF761F850480BF00CF9E8E7618FA08F4E4E51B948B994F8223023BB012117
:202240004B48FFF781FFA08F94F83A10091AC9B23044FFF779FF638F4248A3870BF078F9DE
:2022600094F82630ABB9404823710BF071F92B68002BCAD09D68002DC7D0002394F9322074
:20228000618F3A48A847C0E73220FFF77DF86087D9E70D20FFF778F840F04001C9B20D2026
:2022A000FFF722F830480BF0CDF8E0E71920FFF76BF840B20230801086F860001A20FFF7BB
:2022C00063F896F9602040F30B13002ABABF8B3A80188B389BB203441320A6F86230FFF793
:2022E00053F886F864001020FFF74EF801460D20FEF7FAFF96F864101C48FFF725FF96F8D5
:20230000563003B9337117480BF022F92B68002B3FF42CAF9D68002D3FF428AFAC4694F9DB
:202320006030B4F9622094F86410104802B0BDE8704060470F480BF00BF97379012B03D196
:2023400008211220FEF7D0FF00232371044B1B68002B3FF40BAF1B682DE700BF7062002075
:202360009801002008630020F06200209C010020AA620020D862002070B5324C26792546B7
:20238000012E02D0022E44D070BD6379A3B1012BFAD12D480BF0DCF880211220FEF7A4FFF5
:2023A00000232371294B1B68002BEDD0DB68002BEAD0BDE87040184725480BF0C9F8638F90
:2023C0004BB9A38F3BB994F82230C3B9314604F13A00FFF7B9FEAA8F698F95F83E301D4895
:2023E000891A994210440FDB591EC9B2FFF7ACFEAB8F5A1E95F83E301344AB87C4E732205C
:20240000FEF7C2FF6087E6E7C9B2FFF79DFE6B8FF3E76379002BB7D1A28F638F94F83F10E5
:202420000C489B1A8B42104407DDFFF70FFE94F83F30A28F1344A387A6E7D9B2FFF706FECC
:20244000638FF8E7706200200863002098010020F06200209C01002038B505460C46FFF7C6
:20246000FFF915B1012D0BD038BD074B93F82230002BF9D121463220BDE83840FEF734BFBE
:2024800021462320F8E700BF7062002010B504460120FFF7E5F9064B83F85C402CB1342164
:2024A000BDE810403920FEF71FBF1221F8E700BF7062002070B52B4C23792546012B02D097
:2024C000022B2BD070BD6379CBB923860B213E20A3876387FEF708FF10213F20FEF704FF7C
:2024E00094F82630ABB10D20FEF74EFF40F04001C9B20D20FEF7F8FE1B480AF0A3FF1B4BC6
:202500001B68002BDED0DB68002BDBD0BDE870401847154823710BF01BF8F0E7FEF79CFE2D
:202520000020FFF73DF8124C04F133062078FFF797F9033414F8011C14F8020CFEF7D4FE65
:20254000B442F3D10020FFF78BF995F85C00FFF79DFF00232B71054B1B68002BB2D05B68AA
:20256000D2E700BF70620020F062002098010020680D010808B5034B1B685B6898470230E6
:2025800008BD00BF940100200B4B10B51A68032042F004021A601A6842F002021A6000F06E
:2025A0005FFB00200CF04AFD044618B90CF02EFC204610BD0124FBE7003C0240034A0449CB
:2025C000136809680B441360704700BF2063002030000020014B1868704700BF20630020FF
:2025E000F7B5044608B901204CE10268B34B9A4204D040F2BD11B2480CF0A6FB636833F435
:20260000803207D0B3F5003F04D04FF4DF71AC480CF09AFBA36833F0407304D040F2BF11A7
:20262000A7480CF091FBE36833F4006304D04FF4E071A3480CF088FB236933F4807304D002
:2026400040F2C1119E480CF07FFB636933F4806304D04FF4E1719A480CF076FBA36933F05D
:20266000300306D0402B04D040F2C31194480CF06BFBE36933F4403304D04FF4E2719048A6
:202680000CF062FB236A23B140F2C5118C480CF05BFB94F82430012B04D94FF4E371884802
:2026A0000CF052FB636B23F08062B2F1007F1CD023F00062B2F1E06F17D023F08072B2F10A
:2026C000006F12D0B2F1806F0FD0B3F1206F0CD033F0100209D023F00073B3F1807F04D01E
:2026E00040F2C71176480CF02FFB94F83C30012B04D94FF4E47172480CF026FB2369EBB154
:20270000A36A013B1A2B04D94FF4E6716C480CF01BFB94F82C30012B04D940F2CD1168483D
:202720000CF012FB94F82C3043B1236B013B072B04D94FF4E87162480CF006FB636B102B8F
:2027400008D0A36B33F0405304D04FF4EB715C480CF0FAFAE36C7BB9236584F84830594B33
:2027600020461A6A42F001021A621B6A03F001030193019B0CF078FBE36CDB063FF533AF5D
:20278000E36C514A23F4885323F0020343F00203E3645368616823F440330B4353604FF474
:2027A000007191FAA1F10223B1FA81F194F8240093FAA3F3B3FA83F36569E26800FA03F34B
:2027C0002A43256A26692A4394F83C5005FA01F10A431343626B2568102A1CBFA16B0A438D
:2027E000296818BF134311F0400124D1A269E7691343A268B6F5807F42EA070244D0012E07
:2028000008BF4FF480710A4394F82C1001290DD100283BD14FF4604191FAA1F1B1FA81F04F
:20282000216B42F40062013981400A436868274901400A436A60A968254AB6F5807F02EA7E
:20284000010242EA0302AA6001D0012E27D1286B4FF0F87292FAA2F2B2FA82F1A26A013A80
:202860008A4020F0F8710A432A63A968194A0A409A4218D100202065E36C23F0030343F078
:202880000103E36403B0F0BD3146BCE7E16C41F02001E164216D41F001012165C6E72A6B06
:2028A00022F0F872E0E7E36C23F0120343F01003E364236D43F00103236594E600240140A3
:2028C0009B0D01080038024000270140FF16FCFC8DF1FFC0FEFF80BF02682D4B70B59A42FC
:2028E00004460D4604D040F2C3412A480CF02CFA23689A6856050BD59B68D80508D5E36CC9
:20290000012043F02003E364002384F8483070BDFFF760FE064623681A6892070ED5A26981
:2029200012B96FF012021A60E26C42F40072E2649A6812F0405F13D00020E8E7691CEBD0EE
:2029400045B9E36C032043F00403E364002384F84830DCE7FFF73EFE801BA842DBD9F0E76A
:2029600094F82420002AE7D11A6B12F0F87F02D09B685B05E0D4E36C23F48073E364E06CD2
:2029800010F48050D8D1E36C43F00103E364BEE7002401409B0D01080268064B10B59A42D6
:2029A000044604D040F27D6103480CF0CDF92368986D10BD002401409B0D0108002373B51E
:2029C00002680193614B04469A420D4604D040F291715F480CF0B8F92B681A2B04D940F291
:2029E00092715B480CF0B0F96B68013B1A2B04D940F2937156480CF0A7F9AB68072B04D9C9
:202A000040F2947152480CF09FF994F84830012B00F099800123686884F848300628216879
:202A200000EB80032A6821D81F26086C053B9E4020EA060002FA03F303430B64092A47D8BD
:202A400007264B6902EB4202A868964023EA060300FA02F21A434A612968A1F11003012B10
:202A600059D9002084F8480002B070BD0C280AD81F26C86B233B9E4020EA060002FA03F395
:202A80000343CB63DAE712280AD81F26886B413B9E4020EA060002FA03F303438B63CDE769
:202AA00018284FF01F0009D84E6B5F3B984026EA000002FA03F303434B63BFE70E6B7D3B9F
:202AC000984026EA000002FA03F303430B63B5E7132A0ED802EB4202A2F11E0007220B692A
:202AE000824023EA0202AB6803FA00F002430A61B2E71A2A0DD8072002EB4202CB683C3A90
:202B0000904023EA0003A86800FA02F21A43CA60A2E700BFA0E70F4B5A681202A1D45A681A
:202B2000102942F400025A609BD10B4B0B4A1B68B3FBF2F20A2353430193019B002B90D0C0
:202B4000019B013BF8E702208EE700BF002401409B0D0108002701400C01002040420F002C
:202B6000002373B50193036804461A68520602D5002002B070BD9A6842F001029A60134B82
:202B8000134A1B68B3FBF2F303EB43030193019BC3B9FFF71FFD064623681D6815F040052A
:202BA000E6D1FFF717FD801B0228F5D9E36C84F8485043F01003E364236D012043F00103E9
:202BC0002365D6E7019B013BE0E700BF0C01002040420F000268204B10B59A42044604D000
:202BE0004FF489611D480CF0AFF894F84830012B2FD00123204684F84830FFF7B1FF38BB5A
:202C0000E36C23F4E06323F0010343F48073E36423685A68520541BFE26C22F4405242F4B3
:202C20008052E264E26C12F480521CBF226D22F006022265002284F848206FF022021A6048
:202C40009A6812F0405F03D19A6842F080429A6010BD0220FCE700BF002401409B0D010866
:202C6000C31E042B10B5044603D9AC2109480CF06BF8094A2402D36804F4E06423F4E06392
:202C80001B041B0C43F0BF6343F400331C43D46010BD00BFD30D010800ED00E00F2A70B5FC
:202CA00005460C46164603D9C4211B480CF04CF80F2C03D9C52118480CF046F8174BDA687C
:202CC000C2F30222C2F10703111D042B28BF042306294FF0FF3198BF002201FA03F388BFA4
:202CE000033A24EA0303934001FA02F226EA0206002D43EA0603A8BF05F160454FEA0313F5
:202D0000B8BF074ADBB2ABBF05F5614505F00F0585F80033535570BDD30D010800ED00E010
:202D200014ED00E0002803DAD82106480CF00CB80123420900F01F0003FA00F0024B43F8B3
:202D400022007047D30D010800E100E090F8212010B5022A03D004228263012010BD026800
:202D6000436B116821F00E011160116821F0010111600121D0E90F4202F01C0201FA02F273
:202D80006260002480F8211080F8204013B198472046E3E71846E1E7164A936913F480737D
:202DA00006D015494B6943F002034B614FF480739269900506D5104943F400734A6942F0BE
:202DC00001024A610B4A9169090506D50A4843F40063416941F0040141619269920406D533
:202DE000054943F400534A6942F010024A61014A93617047003C024024630020F8B5064645
:202E0000FFF7E8FB134D07462C46AB69DB0715D4AB69980744BF0223AB61A369D90509D42D
:202E2000A3691A0506D4A3699B0403D4A06910F4007007D0FFF7B0FF012003E0721CE4D0CC
:202E40000EB90320F8BDFFF7C5FBC01BB042DCD9F7E700BF003C0240054B5A68D20741BF95
:202E6000044A0020DA60044A54BF0120DA607047003C0240EFCDAB8905040302034A00204E
:202E8000536843F001035360704700BF003C0240F8B55A4F06463B7C0D46012B144600F077
:202EA000AA80012310283B7403D8554BC340DB0704D44FF4567153480BF046FF4CF2503002
:202EC000FFF79CFF002843D1022E786112D105F1774303F57803B3F5805F04D340F20D7108
:202EE00048480BF031FF4CF25030FFF787FF78BB2C6029E0012E13D105F1774303F57803DF
:202F0000B3F5805F04D340F2D3613E480BF01CFF4CF25030FFF772FFD0B9A4B22C8013E0AE
:202F2000CEB905F1774303F57803B3F5805F04D340F29D6133480BF007FF4CF25030FFF729
:202F40005DFF28B9E4B22C704CF25030FFF756FF00233B74F8BD042E17D105F1774303F5B0
:202F60007803B3F5805F04D340F2FE5125480BF0EBFE4CF25030FFF741FF0028E8D1224A65
:202F8000536823F480735360DCE7082E17D105F1774303F57803B3F5805F04D340F23A618A
:202FA00018480BF0D1FE4CF25030FFF727FF0028CED1154A536823F480735360ADE7102E9D
:202FC00017D105F1774303F57803B3F5805F04D340F27B610B480BF0B7FE4CF25030FFF7C3
:202FE0000DFF0028B4D1084A536823F4807353607EE70120ACE70220ACE700BF246300201A
:20300000170101000E0E0108003C02402DE9F04F974B85B0984204460D4617D003F580634F
:20302000984213D003F5806398420FD003F5806398420BD003F58063984207D003F5806348
:20304000984203D0B9218B480BF07EFE2B689AB212B11B0C1B041BB1BA2186480BF074FED5
:203060006B68032B17D9A3F11102012A13D9824923F400128A420ED001F580118B420AD0D5
:20308000A1F570218A4206D07C4A934203D0BB2178480BF059FEAB68022B03D9BC21754855
:2030A0000BF052FE0026DFF8E091754F2B6833FA06F202D105B0BDE8F08F4FF0010A0AFAE1
:2030C00006FA1AEA030800F0C8806B6823F01003022B2ED1664B9C4215D0BC4213D003F537
:2030E00000639C420FD003F580639C420BD003F580639C4207D003F580639C4203D0CB2114
:203100005C480BF021FE2B690F2B03D9CC2159480BF01AFE06F0070399000F23F20804EBF2
:203120008202106A8B4020EA03002B698B40034313624FF0030B72000BFA02FB6FEA0B0B6F
:203140006B68206803F0030123F010030BEA00009140013B0143012B216019D8EB68032B92
:2031600005D9E121434801920BF0EEFD019AA168EB680BEA010193400B43A360636823EA81
:203180000A0A6B68C3F30013B34043EA0A036360E36868680BEA030BAB6803FA02F242EA41
:2031A0000B02E260C20058D54FF00F0E354B26F003011A6A01F1804142F001021A621B6A6E
:2031C00001F5803103F001030393039B06F003038A684FEA830C0EFA0CF322EA030E244BD4
:2031E0009C423CD0BC423CD003F500639C423AD003F580639C4238D003F580639C4214BF4B
:203200000523042303FA0CF343EA0E038B606FEA0801D9F80020C30354BF0A4048EA02028E
:20322000C9F80020D9F80420830354BF0A4048EA0202C9F80420D9F80820C30254BF0A409F
:2032400048EA0202C9F80820D9F80C30820254BF0B4048EA0303C9F80C30013626E70023C4
:20326000D0E70123CEE70223CCE70323CAE700BF000002404B0E0108000011100000221059
:2032800000040240003802400004014070B5054616460C4621B94FF4D27108480BF054FD0F
:2032A000012E06D940F2A51104480BF04DFDAC6170BD002EFBD12404F9E700BF4B0E01082A
:2032C00008B5044B5969014202D058610BF08AFE08BD00BF00040140102393FAA3F3B3FA03
:2032E00083F300229B0003F1844303F560231A6070474FF4806393FAA3F3B3FA83F30122A5
:203300009B0003F1844303F560231A6070474FF4007393FAA3F3B3FA83F301229B0003F1FD
:20332000844303F560231A60704700001C4B82B09A6812F0F00F0CD000221A490B6823F097
:20334000010313430B60086800F00100504002B070475A6A144912F0805F0FD00A6802F405
:20336000C052B2F5C05FE7D1B0F5404FE4D10D4A136843F0040313600122DEE75A6A42F077
:2033800080525A625A6A02F080520192019A0A68596A02F4C05221F080515962E1E700BF88
:2033A00000380240003C0240007000402DE9F743044608B90120AFE0036833B1DD0604D153
:2033C0004FF4A8719B480BF0BFFC9B4B9E689F68236806F00C06D80707F480376DD4236815
:2033E000990700F1C6802368D80650D5002E40F02D81914B1B68990502D5A369002BD9D0A8
:20340000E369FF2B04D940F2D7118A480BF09CFC236A33F4C04123F400520AD0B2F5004FEC
:2034200007D0B3F5404F04D04FF4EC7181480BF08BFC814D206A6B6803F46043984240F2EE
:20344000E680FFF773FF0028B4D16B68226A23F4604313436B606B68E26923F07F4343EA97
:2034600002636B60744B9968236A5B0B5A1C4FF400439340C1F3031270498A5CD340704A65
:203480001360704B18680BF0D9FD002844D12368180700F12D812368590700F15381636AAA
:2034A000022B04D94FF42B7162480BF04DFC606A002840F0BF8100202EE06368012B06D9CF
:2034C000052B04D040F259115A480BF03DFC082E594A02D00C2E09D147B113689A037FF533
:2034E0007EAF6368002B7FF47AAF63E76368012B15D1136843F480331360FFF76BF88046EF
:203500004D4D2B689B033FF56AAFFFF763F8A0EB08006428F5D9032003B0BDE8F083464DD4
:20352000ABB92B6823F480332B602B6823F480232B60FFF74FF880462B6898037FF54FAFC4
:20354000FFF748F8A0EB08006428F5D9E3E7052B2B680BBF43F4802323F480332B602B6037
:203560000BBF2B682B6843F4803323F480232B60C3E7E368012B04D94FF4C6712D480BF044
:20358000E3FB23691F2B04D940F28D1129480BF0DBFB042E02D00C2E10D17FB9264B1A683E
:2035A000910703D5E268012A7FF404AF5A68216922F4F85242EA01225A6014E7E268224B99
:2035C000B2B101221A60FFF705F807461A4D2B689A0707D56B68226923F4F85343EA022322
:2035E0006B6000E7FEF7F6FFC01B0228EFD992E71A60FEF7EFFF07460F4D2B689B077FF53A
:20360000F2AEFEF7E7FFC01B0228F6D983E76B6823F4604303436B606B68E26923F07F4360
:2036200043EA02636B60FFF781FE00283FF41AAFC0E600BF840E01080038024019190108DF
:203640000C0100203400002000004742A369012B04D94FF40271A9480BF076FBA269A84B3A
:20366000002A36D001221A60FEF7B4FF0746A54D2B689A0527D5E369FF2B04D94FF407715A
:203680009E480BF061FB236A33F4C04123F400520AD0B2F5004F07D0B3F5404F04D040F2EB
:2036A0001D2196480BF050FB964A216A536823F460430B4353605368E16923F07F4343EAC0
:2036C00001635360E3E6FEF785FFC01B0228CFD921E71A60FEF77EFF07468A4D2B689B0599
:2036E0007FF5D5AEFEF776FFC01B0228F6D912E76369012B04D94FF40F7180480BF024FB22
:203700006269814B7AB101221A60FEF763FF07467C4D6B6B9A073FF5BEAEFEF75BFFC01B9C
:203720000228F6D9F7E61A60FEF754FF0746754D6B6B9B077FF5AFAEFEF74CFFC01B022854
:20374000F6D9E8E6A368012B06D9052B04D04FF41A716A480BF0F8FA6A4B5A6AD00029D4FF
:2037600001275A6A42F080525A625B6A03F080530193019B654D2B68D9051DD5A368614D14
:20378000012B2AD16B6B43F480736B63FEF722FF41F288358146DFF86C81D8F834309B05CF
:2037A00041D5002F3FF47BAE564A536A23F08053536274E60027DDE72B6843F480732B60E3
:2037C000FEF708FF80462B68DA05D7D4FEF702FFA0EB08006428F6D99DE6B3B96B6B41F22E
:2037E000883923F480736B636B6B23F480636B63FEF7F0FE80466B6B9805D2D5FEF7EAFEF2
:20380000A0EB08004845F6D985E6052B6B6B03D143F480636B63B5E723F480736B636B6B42
:2038200023F48063B1E7FEF7D5FEA0EB0900A842B3D970E60C2E6DD00228354D4ED1A36A7F
:2038400033F4803304D040F2B5212C480BF07CFAE36A33F440220AD0B2F5801F07D0B3F558
:20386000001F04D040F2B62124480BF06DFA236B23F40002B2F5800F07D0B3F5000F04D03F
:2038800040F2B7211D480BF05FFA00232B60FEF7A1FE07461B4E3368990119D4B268D4E974
:2038A0000A3122F47D020B431343226B154C1343B36001232B60FEF78DFE054623689A019D
:2038C0003FF5F9ADFEF786FE401B0228F6D922E6FEF780FEC01B0228DDD91CE600232B605B
:2038E000FEF778FE0546074C23689B017FF5E3ADFEF770FE401B0228F6D90CE6840E010850
:20390000200047420038024080064742007000406000474201283FF4FFAD0A4B9868A36A72
:2039200000F480329A427FF445ADE26A00F4701393427FF43FAD236B00F44000C01A18BF36
:203940000120E9E500380240104A936803F00C01082903D00C2903D004290ED10C48704786
:203960000C499268C3F383428A5C0948C3F3815350430133B0FBF3F070475068C0F34230D3
:20398000431C4FF400409840704700BF003802400024F400311901082DE9F0410D4604462E
:2039A00010B90120BDE8F081012904D940F22A317B480BF0C9F97B4B1A6802F00102AA42CA
:2039C0003DD323689E074BD42368D80767D4754B1A6802F00102AA4200F2C08023685907A3
:2039E00000F1C58023681B0718D5236933F480620CD023F40072B2F5A06F07D0B3F5C06F99
:203A000004D04FF46D7166480BF09EF9664A2169936823F4605343EAC1039360FFF794FF05
:203A2000BDE8F041604B614A9B68C3F30313D35CD8405F4B18605F4B18680BF0FFBA012D16
:203A400002BF1A6842F004021A601A6822F001022A431A601B6803F00103AB42A1D1B0E783
:203A6000A36833F0800212D023F02002902A0ED023F04002A02A0AD023F01002C02A06D009
:203A8000F02B04D040F2413145480BF05DF9464AA168936823F0F0030B43936094E7636894
:203AA000032B04D94FF452713D480BF04DF961683D4B02291A681ED112F4003F3FF471AFAA
:203AC0009A68394F22F003020A439A60FEF782FD63680646022B41F2883819D1BB6803F053
:203AE0000C03082B3FF473AFFEF774FD801B4045F4D9032056E7032902D112F0007FDDE738
:203B0000012902D112F0020FD8E712F4007FD5E7032B0BD1BB6803F00C030C2B3FF457AFF6
:203B2000FEF758FD801B4045F4D9E2E7012B10D1BB6803F00C03042B3FF449AFFEF74AFDBD
:203B4000801B4045F4D9D4E7FEF744FD801B4045CFD8BB6813F00C0FF6D138E71A6822F005
:203B600001021A601B68DA077FF538AF19E7E36833F480620CD023F40072B2F5A06F07D0C3
:203B8000B3F5C06F04D040F2AD3105480BF0DCF8054AE168936823F4E0630B43936021E718
:203BA000840E0108003C024000380240191901080C01002034000020044B054A9B68C3F35F
:203BC0000223D35C034A1068D840704700380240291901080C010020044B054A9B68C3F3B4
:203BE000C223D35C034A1068D840704700380240291901080C01002038B50D46044620B9C8
:203C000040F2FA4111480BF09FF825B940F2FB410E480BF099F80F2323600D4B9A6802F01D
:203C2000030262609A6802F0F002A2609A6802F4E062E2609B68DB0803F4E0632361054B65
:203C40001B6803F001032B6038BD00BF840E010800380240003C024003682DE9F341012B37
:203C6000044603D0622147480BF06EF82368D80701D400205CE0636833F440320CD0424A4D
:203C800023F08041914207D002F10052934203D06E213C480BF058F83C4B5A6AD10035D436
:203CA00001265A6A42F080525A625B6A03F080530193019B364D2B68DA0529D53349636864
:203CC0000A6803F4403002F0C04203F0C04393420A4630D1536B13F4403334D160682B4B80
:203CE00000F44031B1F5403F06D11A6800F0C04022F0C04202431A605A6B11435963002E1B
:203D0000B7D05A6A22F080525A62B2E70026D1E72B6843F480732B60FEF75CFC07462B68CC
:203D2000DB05CBD4FEF756FCC01B6428F7D9032002B0BDE8F081B0F5403FCBD10B689D03C8
:203D4000C8D50120F4E78342C8D02368D907C5D501251049536B0D60002523F440300D60A5
:203D60005063DA05BAD5FEF735FC41F288380746064D6B6B9B05B1D4FEF72CFCC01B4045F1
:203D8000F7D9D4E7BC0E0108000003200038024000700040DC064742B1F5807F70B50446F9
:203DA0000D4607D0B1F5007F04D040F2A45126480AF0CAFF237F0220012B21D00123CA2297
:203DC0002377236860775A625322B5F5807F5A629A6823D122F480729A609A6822F480526F
:203DE0009A60FEF7F7FB06462368DD6815F0010507D0FF22236800205A62012320776377C7
:203E000070BDFEF7E7FB801BB0F57A7FECD9FF22032023685A6260772577F1E722F4007242
:203E20009A609A6822F400529A60FEF7D3FB06462368DD6815F00205DBD1FEF7CBFB801B37
:203E4000B0F57A7FF4D9E2E7F70E010838B5036804469A68920601D5002038BDDA6822F0A5
:203E6000A002DA60FEF7B6FB05462368DB689B06F2D4FEF7AFFB401BB0F57A7FF5D90320B7
:203E8000EBE738B503680446DA68520601D5002038BD4FF0FF32DA60FEF79CFB054623681D
:203EA000DB685B06F3D4FEF795FB401BB0F57A7FF5D90320ECE7000038B5044600284ED0D8
:203EC00002683B4B9A4203D0F5213A480AF03CFF636833F0400303D0F62136480AF034FFB0
:203EE000A3687F2B03D9F72132480AF02DFFE368B3F5004F03D3F8212E480AF025FF236928
:203F000033F4C00303D0F9212A480AF01DFF636933F4801303D0FA2126480AF015FFA36946
:203F200033F4802303D0FB2122480AF00DFF637F03F0FF021BB9227720460AF0A9FF0223E8
:203F4000CA226377236820465A6253225A62FFF798FF236828B1FF225A62042363770120CD
:203F600024E09A68256922F4E00222F040029A60626899682A4365692A430A439A60E26863
:203F8000A1681A611A6942EA01421A61DA68A16922F08002DA601A6C22F480221A641A6CD4
:203FA0000A431A64FF225A620123637738BD00BF00280040F70E01080023092803D840EAD8
:203FC0000310C0B270470A380133C0B2F5E70A22030900F00F0002FB0300C0B27047000081
:203FE000012AF8B506460C46154604D940F2D12168480AF0A9FEE368B3F5003F07D033F46E
:020000040800F2
:20400000803304D040F2D22162480AF09DFE236933F4802304D040F2D3215E480AF094FE33
:20402000337F0220012B4FD001237077337720783368002D4FD19B685B0646D501380B2841
:2040400004D940F2DE2153480AF07EFEE37813F0BF0F04D040F2DF214E480AF075FE637831
:204060003B2B04D940F2E6214A480AF06DFEA3783B2B04D940F2E72146480AF065FE2078B2
:20408000FFF79AFF02466078FFF796FF0546A078FFF792FFE37840EA034040EA024040EA9E
:2040A0000525CA22336830465A6253225A62FFF7E8FE3368074600284AD0FF225A620423E2
:2040C0007377002333770120F8BD1728E570C6D94FF43971C0E79968FFF779FF11F04001DB
:2040E00030D00138C0B20B2804D940F2F22129480AF02AFEE37813F0BF0F04D040F2F321E7
:2041000024480AF021FE6078FFF761FF3B2804D940F2FA211F480AF017FEA078FFF757FF85
:204120003B2804D940F2FB211A480AF00DFE60782578000240EA0540A5782843E57840EA95
:204140000545AEE71728E170DDD94FF43E71D7E705F07F3525F0FE451D609A68E16822F4AB
:2041600080229A609A6830460A4321690A439A60DA6822F08002DA60FFF768FEFF223368E5
:204180005A6218B10423377773779CE701233077737799E7F70E0108012AF8B505460C46A0
:2041A000164604D94FF4557114480AF0CDFD2B689A6A19691B68C1F30E0103F07F3323F086
:2041C000FE431D0C05F03F0092B2A160C3F30627D9B205F04005626020706770A170E570C5
:2041E00056B9FFF7F4FE20703846FFF7F0FE60700846FFF7ECFEA0700020F8BDF70E0108E5
:20420000012A70B505460E46144604D940F282314F480AF099FD2B7F0220012B53D001232D
:2042200068772B7734B97378DA0642BF23F010030A3373703378013B062B04D940F28E3118
:2042400043480AF081FDF078002C3DD1632804D940F292313E480AF077FD7378013B0B2B0B
:2042600004D940F293313A480AF06EFDB378013B1E2B04D94FF4657135480AF065FDF0789D
:20428000FFF79AFE02467078FFF796FE0446B078FFF792FE337840EA433040EA024040EA00
:2042A0000424CA222B6828465A6253225A62FFF7E8FD2B68064698B3FF225A6204236B7711
:2042C00000232B77012070BDFFF781FE632804D940F29D311E480AF037FD7078FFF777FE07
:2042E0000138C0B20B2804D940F29E3118480AF02BFDB078FFF76BFE0138C0B21E2804D92B
:2043000040F29F3112480AF01FFD7078F478000240EA0440B4782043347840EA4434C0E7E3
:2043200024F07F4424F0C0045C60DA68284622F08002DA60FFF78AFDFF222B685A6218B1DE
:2043400004232E776B77BDE7012328776B77BAE7F70E0108012A70B505460C46164604D991
:204360004FF47B7110480AF0EFFC2B685B6823F07F4323F0C003180CC3F30425D9B2C3F38C
:204380004233E0706570A170237056B9FFF71FFEE0702846FFF71BFE60700846FFF717FEC7
:2043A000A070002070BD00BFF70E0108012A2DE9F04106460C46154604D940F2E741B44835
:2043C0000AF0C2FC636AB3F5807F07D0B3F5007F04D04FF49D61AE480AF0B6FC636913F02D
:2043E0007F3F04D040F2E941A9480AF0ADFCE36933F0804304D040F2EA41A5480AF0A4FC51
:204400006368B3F5004F04D340F2EC41A0480AF09BFCA36933F040730DD0B3F1806F0AD0FF
:20442000B3F1006F07D0B3F1406F04D040F2ED4197480AF089FC337F0220012B00F0038139
:2044400001237077337720783368002D40F094809B685B0640F1858001380B2804D940F2EE
:20446000F9418B480AF070FCE37813F0BF0F04D040F2FA4186480AF067FC63783B2B04D913
:2044800040F2015182480AF05FFCA3783B2B04D940F202517E480AF057FC94F82030E2695C
:2044A000013BDBB2002A62D11E2B04D940F2065177480AF049FC2078FFF77EFD0146607801
:2044C000FFF77AFD0246A078FFF776FD074694F82000FFF771FD6569E3692B43E57843EA37
:2044E00005453D4345EA014545EA022545EA0065CA22A36967681F4333685A6253225A62E2
:20450000626AB2F5807F9A6840F09F8022F480729A60DA68D2B262F4C072DA60FEF75AF807
:2045200080463368DC6814F001047ED0DD615F649A6842F480729A609A6842F480529A6056
:20454000544B00201A6842F400321A609A6842F400329A60FF2233685A62012330777377A7
:2045600071E01728E57088D940F2FF4182E7062BA1D940F20A519BE79968FFF728FD11F043
:20458000400147D00138C0B20B2804D94FF4A3613F480AF0D9FBE37813F0BF0F04D040F23A
:2045A00019513B480AF0D0FB6078FFF710FD3B2804D940F2215136480AF0C6FBA078FFF743
:2045C00006FD3B2804D940F2225131480AF0BCFB94F82000FFF7FBFCE3690138C0B2FBB985
:2045E0001E2804D940F2265129480AF0ADFBE36965691D43A3781D43237845EA03456378FA
:2046000045EA0325E37845EA034594F8203045EA03656DE71728E170C6D940F21E51C0E733
:204620000628E4D940F22A51DEE7FDF7D3FFA0EB0800B0F57A7F7FF674AFFF2203203368AF
:204640005A6270773477BDE8F08122F400729A60DA68D2B262F42072DA60FDF7BBFF804618
:204660003368DC6814F0020409D01D629F649A6842F400729A609A6842F400525FE7FDF78E
:20468000A9FFA0EB0800B0F57A7FE9D9D5E700BFF70E010800040140042970B506460C46C1
:2046A000154604D940F2814103480AF04DFB3368503343F8245070BD2F0F0108042938B5E6
:2046C00005460C4604D940F2974104480AF03CFB2B68503353F8240038BD00BF2F0F010859
:2046E000037F012B4FF002030FD0CA22437703685A6253225A629A6842F020029A60FF227A
:204700005A62012343770023037718467047F8B504460E4615461F4621688A6836EA0203A2
:2047200001D000202DE06B1CF7D0FDF753FFC01B8542F1D823685A6822F0E0025A606268B7
:20474000B2F5827F0AD1A268B2F5004F02D0B2F5806F03D11A6822F040021A60A26AB2F597
:20476000005F07D11A6822F400521A601A6842F400521A60012384F851300023032084F837
:204780005030F8BD1346426810B5B2F5827F044606D10A468021FFF7BAFF40B9002010BDCD
:2047A00090F85120052AF9D10A460121F3E7636D032043F020036365F1E7000010B50446C3
:2047C000002800F0988003684C4A934208D0A2F57842934204D04FF49F7149480AF0B4FA75
:2047E00063683BB1B3F5827F04D040F23F1144480AF0AAFAA36833F4806207D0B3F5004FF7
:2048000004D04FF4A0713E480AF09EFAE36833F4006304D040F2411139480AF095FAA36915
:2048200033F4007207D0B3F5802F04D04FF4A17133480AF089FAE36933F0180306D0202BE5
:2048400004D040F243112E480AF07EFA236A33F0800304D04FF4A27129480AF075FA636A12
:2048600023B140F2471126480AF06EFA636A83B9236933F0020304D04FF4A57120480AF0BE
:2048800063FA6369012B04D940F24B111C480AF05BFA0023A36294F8513003F0FF0223B9A0
:2048A00084F8502020460AF021FB0223216884F851300B68A26923F040030B60D4E90130B8
:2048C0000343E06803432069034360690343E0690343206A0343A06A034302F400700343CB
:2048E0000B6000200123120C02F004024A60606584F8513010BD0120FCE700BF0030014086
:204900006A0F01082DE9F7431E46836804460D4691460A9F23B140F25D4176480AF014FAEF
:2049200094F85030012B00F0E280012384F85030FDF750FE94F851308046DBB2012B616836
:204940000AD0B1F5827F40F0D080A268002A40F0CC80042B40F0C980002D00F0C480B9F1F3
:20496000000F00F0C080002E00F0BD8094F85130C4F83890042B1CBF052384F851300023BA
:204980006365C4E910332368E687E6861A68A687500658BF1A68256358BF42F04002A6861E
:2049A00058BF1A60E268B2F5006F58D109B1012E07D135F8022BDA60E38E2563013B9BB206
:2049C000E3860125E38E9BB2ABB9E38F9BB293B9424639462046FFF7D5FE002840F081808C
:2049E000A368002B32D123680190DA6801929B680193019B2AE02268936899070DD5E38ED8
:204A00009BB253B14DB10025236B33F8021BD1602363E38E013B9BB2E3869368DB070CD574
:204A2000E38F9BB24BB10125D268A36B23F8022BA363E38F013B9BB2E387FDF7CBFDA0EB53
:204A400008008742BED87E1CBCD00320012384F85130002384F8503003B0BDE8F08309B1E1
:204A6000012E08D12A781A73236B01332363E38E013B9BB2E3860125E38E9BB21BB9E38F2A
:204A80009BB2002BA4D02268936898070ED5E38E9BB25BB155B10025236B1B781373236BF9
:204AA00001332363E38E013B9BB2E38622689368D9070DD5E38F9BB253B10125D268A36B61
:204AC0001A70A36B0133A363E38F013B9BB2E387FDF780FDA0EB08008742CDD87B1CCBD0FB
:204AE000B3E7202363650120B0E70220AEE70220B2E700BF6A0F0108B0F1804F036806D0F5
:204B0000184A904203D002F5806290420ED14A6823F07003B0F1804F43EA020311D0114AEE
:204B200090420ED002F5806290420AD00E4A904207D002F58062904203D002F58062904216
:204B400003D1CA6823F4407313430A6923F08003134303608B68C3620B6883620123436135
:204B6000704700BF000400400008014010B5044600285DD00368B3F1804F1FD02D4A9342B5
:204B80001CD002F58062934218D002F50062934214D002F58062934210D002F57442934271
:204BA0000CD002F58062934208D002F58062934204D040F20B1120480AF0C6F8A36833F075
:204BC00010020AD023F04002202A06D0402B04D04FF4867118480AF0B7F8236933F480724D
:204BE00007D0B3F5007F04D040F20D1112480AF0ABF8636933F0800304D04FF487710E48C5
:204C00000AF0A2F894F8393003F0FF0223B984F8382020460AF09CF90223206884F83930E0
:204C2000211DFFF769FF0123002084F8393010BD0120FCE700040040A20F0108036810B5B0
:204C4000B3F1804F04461FD0174A93421CD002F58062934218D002F50062934214D002F5E7
:204C60008062934210D002F5744293420CD002F58062934208D002F58062934204D04FF4F4
:204C8000D9710A480AF060F823680020DA6842F00102DA609A6802F00702062A1EBF1A683E
:204CA00042F001021A6010BD00040040A20F0108036810B5B3F1804F04461FD0174A934268
:204CC0001CD002F58062934218D002F50062934214D002F58062934210D002F57442934230
:204CE0000CD002F58062934208D002F58062934204D04FF4E5710A480AF026F82368002022
:204D0000DA6822F00102DA6041F21112196A114202BF1A6822F001021A6010BD00040040F3
:204D2000A20F01087047704770477047036810B51A69044691070ED5DA6892070BD56FF04B
:204D400002021A6101229B69027699075CD0FFF7EAFF0023237623681A69520710D5DA6840
:204D600050070DD56FF004021A6102229B69227613F4407F20464DD0FFF7D5FF002323768B
:204D800023681A6911070FD5DA6812070CD56FF008021A610422DB6922769B0720463FD0D0
:204DA000FFF7C1FF0023237623681A69D00610D5DA68D1060DD56FF010021A610822DB6963
:204DC000227613F4407F204630D0FFF7ACFF0023237623681A69D20708D5DA68D00705D5FB
:204DE0006FF0010220461A6109F032FE23681A69510608D5DA68520605D56FF0400220468A
:204E00001A61FFF792FF10BDFFF78CFF2046FFF78BFF9EE7FFF786FF2046FFF785FFADE7E8
:204E2000FFF780FF2046FFF77FFFBBE7FFF77AFF2046FFF779FFCAE738B503680446B3F147
:204E4000804F0D460ED01E4A93420BD002F58062934207D002F58032934203D05A21194888
:204E600009F072FF2B6833F0300305D0402B03D05B21144809F068FF6B6833F0800303D048
:204E80005C21104809F060FF94F838300220012B14D0216884F839004A6828688B6822F03A
:204EA00070020243686823F0800303434A6000208B60012384F8380084F8393038BD00BF69
:204EC00000040040DA0F01080368DA6822F49072DA605A6922F001025A61202380F83A30E5
:204EE0007047000038B54268424B05469A4204D940F6E231404809F027FFEB6833F4005316
:204F000004D040F6E3313C4809F01EFF2B6933F4806207D0B3F5C06F04D040F6E4313648F1
:204F200009F012FF4FF6F3726B69134200D123B940F6E531304809F007FF2A68E9681369C5
:204F40002C6923F440530B431361AB68D16823436C69E869234321F4164121F00C01034342
:204F60000B43D3605369A96923F440730B43B0F5004F5361214B21D19A424FF019041AD1A1
:204F8000FEF72AFE60436C6864216400B0FBF4F0B0FBF1F401FB1403DB003233B3FBF1F390
:204FA00003F007025B00296802EB041203F4F87313448B6038BDFEF7FFFDE3E79A424FF097
:204FC000190414D1FEF708FE60436C686422A400B0FBF4F0B0FBF2F102FB11031B01323384
:204FE000B3FBF2F32C6803EB0113A360E2E7FEF7E3FDE9E700093D0015100108003801402A
:20500000F8B504460E4617461D4621680B6836EA030301D1002014E06B1CF7D095B9236856
:205020000320DA6822F4D072DA605A6922F001025A61202384F8393084F83A30002384F839
:205040003830F8BDFDF7C6FAC01B8542DDD2E6E710B50446002864D081690368324A0029FC
:2050600053D093420CD0A2F57442934208D002F58062934204D040F245112C4809F064FE89
:20508000A36933F4407304D04FF4A371274809F05BFEA36833F4805304D04FF4A6712348A0
:2050A00009F052FEE36933F4004304D040F24D111E4809F049FE94F8393003F0FF0223B922
:2050C00084F83820204609F057FF2423226884F83930D368204623F40053D360FFF702FF5C
:2050E000236800201A6922F490421A615A6922F02A025A61DA6842F40052DA602023E063D9
:2051000084F8393084F83A3010BD9342C1D0084A9342BED002F580629342BAD04FF4A5714B
:20512000B4E70120F0E700BF0038014015100108004400402DE9F0411F4690F8393004460B
:20514000202B0D4690464CD1002948D0002A46D090F83830012B44D0012380F838300023E6
:20516000C363212380F83930FDF734FA0646A4F82480A4F82680E38C9BB263B93B46324623
:2051800040212046FFF73CFFA0B9202384F8380084F839300FE0E38C3246013B9BB2E3841C
:2051A000A3688021B3F5805F20463B460ED1FFF727FF10B10320BDE8F0812B882268C3F3ED
:2051C00008035360236943B90235D4E7FFF718FF0028EFD123682A785A600135CBE70120B2
:2051E000E9E70220E7E790F83A3010B5222B33D181680469B1F5805F836A026823D1526807
:20520000ECB9C2F3080223F8022B8362C48D013CA4B2C4858CB90368DA6822F02002DA6070
:20522000DA6822F48072DA605A6922F001025A61202380F83A3009F023F800200DE0D2B28D
:2052400023F8012BE1E7591C526881620CB91A70DCE702F07F02FAE7022010BD7047000021
:20526000036870B51A6804461607D9685D6907D1960658D58D0656D5BDE87040FFF7B3BF92
:2052800015F0010502D111F4907F4CD0D30705D5CE0542BFE36B43F00103E363500704D57D
:2052A0001DB1E36B43F00203E363930704D51DB1E36B43F00403E363160704D51DB1E36B33
:2052C00043F00803E363E36B43B3950604D5880602D52046FFF787FF236820465D69E26B47
:2052E000110702D415F0400519D0FFF7EDFD23685A6952060FD55A69606B22F040025A6186
:2053000048B1264B4363FDF721FD38B1606BBDE87040436B18472046FFF7A0FF70BDFFF737
:205320009DFFE563FAE7160628D50D0626D594F83920212AF2D1A168226AB1F5805F18D18B
:205340001188C1F308015960216981B902322262E28C013A92B2E284002ADFD1DA6822F041
:205360008002DA60DA6842F04002DA60D6E70132EDE7511C216212785A60E9E75006CDD5C1
:205380004A06CBD5DA68204622F04002DA60202384F8393008F07AFFC0E700BFA1530008EC
:2053A00008B50023406AC385C384FFF757FF08BD08B500F0C9FD002008BD30B5B0F9084095
:2053C00085B0842C08BF0024028A18BF03340B46D0E9001503A8CDE90040284600F0DCFC6D
:2053E000012814BF0020039805B030BD08B50A23B0FBF3F0002808BF012000F00BFF0020B2
:2054000008BD10B51C2001F07FFC044620B1002340F8043B00F016F9204610BD2DE9F04726
:20542000089F0C4690469946064640B94FF0500383F31188BFF36F8FBFF34F8FFEE711F0B2
:205440007F4A08D04FF0500383F31188BFF36F8FBFF34F8FFEE741B94FF0500383F311884A
:20546000BFF36F8FBFF34F8FFEE701F083F848B947B14FF0500383F31188BFF36F8FBFF39F
:205480004F8FFEE700F0A0FD356804EA0503B9F1000F15D1B3B9002F3DD0B8F1000F0CBF5F
:2054A00000214FF08071B9F1000F01D041F080613A462143301D00F037FFBA46002507E09C
:2054C0009C42E8D1B8F1000F02D025EA0403336000F02AFEBAF1000F1AD038B94FF0805244
:2054E000124B1A60BFF34F8FBFF36F8F01F0A2F8830105460AD401F0D5FA356804EA05030A
:20550000B9F1000F09D153B901F0EEFA25F07F452846BDE8F087BA46DAE79C42F4D1B8F1A3
:20552000000FF1D025EA04043460EDE704ED00E070B50C46054640B94FF0500383F31188EF
:20554000BFF36F8FBFF34F8FFEE711F07F4F08D04FF0500383F31188BFF36F8FBFF34F8F9E
:20556000FEE701F09FFA2E6826EA04042C6001F0BBFA304670BDFFF7DBBF00000A46002336
:205580000146014801F022BA77550008EFF311834FF0500282F31188BFF36F8FBFF34F8F85
:2055A000006883F3118870472DE9F0410F46044640B94FF0500383F31188BFF36F8FBFF3DB
:2055C0004F8FFEE711F07F4508D04FF0500383F31188BFF36F8FBFF34F8FFEE700F10C06A2
:2055E00000F0F2FC236820693B4323608642216807D121EA0501216000F096FD2068BDE84D
:20560000F081D0E9002822F07F4312F0806F03EA010702D11FB94046E8E7BB42FBD1D201E2
:2056200041F0007148BF1D4300F00CFFF3E7FFF7BBBF000013460A460146014801F0C6B973
:205640002F5600084FF0FF3200F108034360C0E90223036100230360704700230361704701
:2056600043689A684B608A609A6851609960036808610133036070470A6830B5531C0AD179
:2056800003695A684A6091608B605960036808610133036030BD00F108035C682568954221
:2056A000EFD82346F9E70369D0E901128A60826851605968814208BF5A60002202611A6811
:2056C000013A1A601868704710B5044601F0EAF9A46B01F009FAB4FA84F0400910BD70B59B
:2056E0001546026C0446866B42B905689DB9406800F050FF65600136A66370BD6DB98068C1
:2057000009F0E3FFA368226C13446268A360934201D32368A3600020EDE7C06809F0D5FFD1
:20572000236CE2685B4221681A448A42E2603EBF62689B18E360022DEDD10EB1013EEAE785
:205740003046D8E703461A6C10B4084662B1D9685C681144A142D96028BF196810BC28BF8F
:20576000D960D96809F0B1BF10BC704770B5044601F098F994F8455004F124066DB2002D46
:2057800014DCFF2384F8453001F0AEF901F08AF994F8445004F110066DB2002D12DCFF2373
:2057A00084F84430BDE8704001F09EB9636A002BE7D0304600F004FE08B100F0CFFE013D91
:2057C0006DB2DCE72369002BE9D0304600F0F8FD08B100F0C3FE013D6DB2DEE738B50D4650
:2057E000044640B94FF0500383F31188BFF36F8FBFF34F8FFEE701F055F9D4E90F304343DF
:205800002268D1181B1A13446160E3600021FF23A163A26084F8443084F8453095B9236981
:2058200063B104F1100000F0CBFD38B14FF08052094B1A60BFF34F8FBFF36F8F01F054F951
:20584000012038BD04F11000FFF7FCFE04F12400FFF7F8FEF2E700BF04ED00E0F8B50D46CF
:205860001746064640B94FF0500383F31188BFF36F8FBFF34F8FFEE74843503001F044FA86
:20588000044648B155B92060C4E90F6501212046FFF7A4FF84F84C702046F8BD00F150035E
:2058A0000360F1E72DE9FF47884601921F46044640B94FF0500383F31188BFF36F8FBFF345
:2058C0004F8FFEE751B9036C43B14FF0500383F31188BFF36F8FBFF34F8FFEE7022F0BD1C5
:2058E000E36B012B08D04FF0500383F31188BFF36F8FBFF34F8FFEE700F03CFE50B9019EBE
:205900004EB14FF0500383F31188BFF36F8FBFF34F8FFEE700264FF00009DFF8E8A037E0DE
:20592000019D1DB901F0E0F8002050E016B902A800F0CCFD01F0D8F800F046FB01F0B2F81B
:2059400094F84430FF2B08BF84F8449094F84530FF2B08BF84F8459001F0C6F801A902A8C0
:2059600000F0C0FD002846D101F09CF8A26BE36B9A422FD101F0B8F8019904F1100000F04F
:20598000B9FC2046FFF7F2FE00F0CEFB50B3012601F088F8A26BE36B9A4201D3022FBFD1E6
:2059A0003A4641462046FFF79AFE636A1BB104F1240000F005FD38B14FF08052114B1A6078
:2059C000BFF34F8FBFF36F8F01F08EF8012004B0BDE8F08701F088F82046FFF7C7FE00F09D
:2059E000A3FBD4E74FF08053CAF80030BFF34F8FBFF36F8FCBE72046FFF7B8FE00F094FBC7
:205A000092E700BF04ED00E02DE9F843894690461F46044640B94FF0500383F31188BFF38C
:205A20006F8FBFF34F8FFEE751B9036C43B14FF0500383F31188BFF36F8FBFF34F8FFEE7C0
:205A4000022F0BD1E36B012B08D04FF0500383F31188BFF36F8FBFF34F8FFEE701F002F935
:205A6000EFF311864FF0500383F31188BFF36F8FBFF34F8FA26BE36B9A4201D3022F22D19D
:205A800094F845503A466DB249462046FFF727FE6B1C13D1636A0BB901200BE004F1240015
:205AA00000F08EFC0028F7D0B8F1000FF4D00120C8F8000086F31188BDE8F88301356DB299
:205AC00084F84550E8E70020F4E700002DE9F04385B00F460192044640B94FF0500383F33A
:205AE0001188BFF36F8FBFF34F8FFEE751B9036C43B14FF0500383F31188BFF36F8FBFF378
:205B00004F8FFEE700F036FD50B9019E4EB14FF0500383F31188BFF36F8FBFF34F8FFEE732
:205B200000264FF00008DFF8E0903BE0019D1DB900F0DAFF002052E016B902A800F0C6FCDC
:205B400000F0D2FF00F040FA00F0ACFF94F84430FF2B08BF84F8448094F84530FF2B08BF9C
:205B600084F8458000F0C0FF01A902A800F0BAFC00283DD12046FFF7A7FD98B3019904F12B
:205B8000240000F0B7FB2046FFF7F0FD00F0CCFA38B94FF08053C9F80030BFF34F8FBFF30A
:205BA0006F8F012600F07EFFA56B002DBED039462046013DFFF7C6FDA563236963B104F10F
:205BC000100000F0FDFB38B14FF080520E4B1A60BFF34F8FBFF36F8F00F086FF012005B075
:205BE000BDE8F0832046FFF7C1FD00F09DFAD8E72046FFF7BBFD00F097FA2046FFF764FDDB
:205C00000028CED096E700BF04ED00E0002330B5064A52F8335002EBC3041DB942F8331085
:205C2000606030BD0133082BF3D1FAE73C63002070B504460D46164600F034FF94F84430AB
:205C4000FF2B04BF002384F8443094F84530FF2B04BF002384F8453000F046FFA36B2BB91B
:205C60003246294604F1240000F08AFB2046BDE87040FFF77BBD0000064A13681968064B29
:205C800019B94FF0FF321A6070471268D268D2685268F8E7A002002078030020F8B51B4B9A
:205CA0001B4E1C68054630680F460430FFF7FBFC334640B901203168164EC96A3268884079
:205CC00022EA000232606A1C07D137B1196812480431BDE8F840FFF7C3BC1A6864195460C9
:205CE00007D30E4A10681968BDE8F8400431FFF7C3BC0B4A106819680431FFF7BDFC094B6C
:205D00001A68A24288BF1C60F8BD00BFC00300209C0200204803002098030020A402002059
:205D2000A00200207803002080B5DFF86880154F154C164E236873B9154B1B68012B07D943
:205D40004FF08053C8F80030BFF34F8FBFF36F8F09F0F6FBECE700F0A5FEFB68DD68281DC4
:205D6000FFF7A1FC3368013B33602368013B236000F0BAFE286B01F055F8284601F052F8BA
:205D8000D8E700BFAC0300203803002034030020A802002004ED00E02DE9F84F4FEA820A47
:205DA000804650460D4699460B9E00F0ADFF0746002800F09E805C2000F0A6FF044600280A
:205DC00000F0948052460763A521384609F088FC236BAAF1040A9A442AF0070A6B1E04F13E
:205DE00034020F3513F8011F02F8011B197809B19D42F7D10A9D4FF0000B062D28BF0625C0
:205E0000271DE562C4E9135B384684F843B0FFF724FCC5F1070504F11800FFF71EFCC4F83E
:205E200054B02461A561646284F858B04A464146504600F00FFE206006B1346000F032FEF4
:205E4000334B344E1A68DFF8F88001321A603568002D51D134601B68012B1FD14FF0140949
:205E600009FB05800135FFF7EDFB072DF8D1DFF8D490294D4846FFF7E5FB2846FFF7E2FB32
:205E80002648FFF7DFFB2648FFF7DCFB2548FFF7D9FB254BC3F80090244B1D600125244A17
:205EA00024491368086801331360E26A636405FA02F3034314200B6000FB02803946FFF705
:205EC000CFFB00F011FE1C4B1B6863B13368DA6AE36A9A4207D24FF08052184B1A60BFF37A
:205EE0004F8FBFF36F8F2846BDE8F88F384600F099FF4FF0FF35F6E70F4B1B68002BCDD17E
:205F00003368E26ADB6A9A4228BF3460C6E700BF340300209C020020600300208003002057
:205F2000AC03002098030020A0020020A402002044030020480300209403002004ED00E0F5
:205F4000A80200204C03002013B50024184B009401938022234617491748FFF71DFF01288C
:205F600018D100F0BDFB012814D14FF0500383F31188BFF36F8FBFF34F8F4FF0FF320F4BD7
:205F80001A600F4B18600F4B1C6002B0BDE8104000F00EBE013008D14FF0500383F31188D1
:205FA000BFF36F8FBFF34F8FFEE702B010BD00BF740300204E100108295D00087803002057
:205FC00094030020C0030020024A136801331360704700BF40030020014B1868704700BF9E
:205FE000C003002008B500F03DFE014B186808BDC00300202DE9F84F404B1B68002B73D188
:020000040800F2
:206000003F4B1C6801341C60BCB93E4B1A68126842B14FF0500383F31188BFF36F8FBFF3D1
:206020004F8FFEE7384A1968106818601160374A136801331360FFF71FFE354D4FF0000BB7
:206040002B68344FA34216D93A68334BD16A14224A439A58022A314A28BF4FF0010B1268F3
:206060000AB909F077FA2E4A1268002A0CBF58460120BDE8F88FDFF88CA0DFF8A890DAF83D
:20608000002012681AB94FF0FF322A60DCE7DAF80020D268D66871688C4201D22960D3E7AF
:2060A00006F104084046FFF7FEFAB16A19B106F11800FFF7F8FA01224FF0140CF06AD9F8E0
:2060C000003002FA00F11943134BC9F800100CFB00304146FFF7C4FA3868F16AC26A9142AC
:2060E00028BF4FF0010BCAE70C4A4FF0000B13680133136009F02EFAB5E700BF400300201C
:20610000C0030020A0020020A40200207C030020780300209C020020A80200203C030020F3
:20612000C4030020480300202DE9F843304C236843B94FF0500383F31188BFF36F8FBFF3B6
:206140004F8FFEE700F0AEFC2368013B236024682CB1002400F0C8FC2046BDE8F883254B61
:206160001B68002BF5D0244D244EDFF8A4801FE0EB680127DC6804F1040904F11800FFF70B
:2061800092FA4846FFF78FFA1420E26A316807FA02F30B4300FB028049463360FFF760FA1A
:2061A000174BE26A1B68DB6A9A4201D3154B1F602B68002BDCD10CB1FFF75EFD124D2C686E
:2061C00044B101270F4EFFF715FF00B13760013CF9D12C600B4B1B68002BBAD04FF08052C1
:2061E0000A4B1A60BFF34F8FBFF36F8F0124B1E7400300203403002080030020480300200B
:206200009C020020C40300203C03002004ED00E0A802002008B540B94FF080520D4B1A6046
:20622000BFF34F8FBFF36F8F08BD0B4B196841B14FF0500383F31188BFF36F8FBFF34F8FAF
:20624000FEE7FFF7C1FEFFF729FDFFF76DFF0028E2D0E9E704ED00E04003002038B5204BF0
:206260001A68204B12B101221A6038BD1E4C1A6009F0A6F92268236812681B6B9A4204D893
:2062800020682168343108F0DDFB184B1B68B3FA83F31422DBB2C3F11F035A4314498D5837
:2062A000881845B94FF0500383F31188BFF36F8FBFF34F8FFEE7456808326D680A44954299
:2062C00008BF6A68456008BF4260142202FB03135B68DB682360BDE8384009F061B900BF56
:2062E00040030020C40300209C02002048030020A802002010B50C4640B94FF0500383F349
:206300001188BFF36F8FBFF34F8FFEE7054B19681831FFF7B1F92046BDE810400121FFF792
:20632000BDBC00BF9C02002010B5144640B94FF0500383F31188BFF36F8FBFF34F8FFEE789
:206340000D4B1B6843B94FF0500383F31188BFF36F8FBFF34F8FFEE7084B41F000411A6859
:20636000916119681831FFF77BF92046BDE810400121FFF793BC00BF400300209C02002055
:2063800038B50D46144640B94FF0500383F31188BFF36F8FBFF34F8FFEE7084B1968183187
:2063A000FFF75EF9002C214608BF2846BDE8384018BF4FF0FF30FFF771BC00BF9C020020C6
:2063C00038B5C368DC6844B94FF0500383F31188BFF36F8FBFF34F8FFEE704F1180528461E
:2063E000FFF761F9114B1B68E3B9251D2846FFF75AF901230E49E26A086893400343142055
:206400000B6029460B4B00FB0230FFF729F90A4BE26A1B68DB6A9A4285BF0120074B0020EB
:20642000186038BD29460648EFE700BF4003002048030020A80200209C020020C403002060
:20644000800300201C4A70B5126842B94FF0500383F31188BFF36F8FBFF34F8FFEE7C468A7
:2064600041F00041016044B94FF0500383F31188BFF36F8FBFF34F8FFEE70125261DFFF727
:2064800012F93046FFF70FF90C49E26A086805FA02F3034314200B60094B314600FB02309B
:2064A000FFF7DEF8074BE26A1B68DB6A9A4284BF054B1D6070BD00BF400300204803002004
:2064C000A80200209C020020C4030020034B1B680360034B1B684360704700BF7C03002090
:2064E000C0030020F8B50C46054640B94FF0500383F31188BFF36F8FBFF34F8FFEE741B9B6
:206500004FF0500383F31188BFF36F8FBFF34F8FFEE700F0C7FA0F4B6868196823680A1AAA
:206520005E1C0DD00C4E2F683668B74201D088420DD9934209D99B1A23602846FFF7C6FFE3
:20654000002400F0D1FA2046F8BD002323600124F7E700BFC00300207C0300200122014BE8
:206560001A607047C4030020014B1868704700BF9C020020054B1B6833B1054B1B68002B4E
:206580000CBF022000207047012070479403002040030020F8B5044608B90020F8BD224B4B
:2065A0001B68834208D04FF0500383F31188BFF36F8FBFF34F8FFEE71B6D43B94FF05003DF
:2065C00083F31188BFF36F8FBFF34F8FFEE7C16AC26C013B91420365DFD0002BDDD1051D0D
:2065E0002846FFF760F8114E114A50B91421E76A794373582BB901201368B84023EA000387
:206600001360E36CC3F10701A161E3620124116804FA03F0084310601420294600FB03606A
:20662000FFF71EF82046B9E79C020020A802002048030020044B1A68196890691A68CB6A53
:20664000C3F10703936170479C020020F8B50F4C00F028FA2568ADB90D4F0E4E3846FEF7DB
:20666000F1FF3046FEF7EEFF0B4B2A461F600B4B10210A201E60FFF7F1F8206010B10849ED
:20668000FFF7C4FABDE8F84000F02EBAFC030020D0030020E4030020C8030020CC0300209E
:2066A00053100108914208B5416000610AD8D21A83699A420DD2084B011D1868FEF7DCFFA6
:2066C000002008BD9A4201D2994202D2011D034BF3E70120F5E700BFCC030020C80300209B
:2066E00007B5FFF7B3FF0E4B1B6843B94FF0500383F31188BFF36F8FBFF34F8FFEE7094B44
:206700004FF48072019302230749009307480023FFF742FB0028E9D003B05DF804FB00BF5C
:20672000FC03002000040020581001080568000830B5154685B01A46034640B94FF0500387
:2067400083F31188BFF36F8FBFF34F8FFEE70D4C206878B10529CDE9001502930CDCFFF78F
:2067600009FF002302280CBF089A1A4669462068FFF798F805B030BD00236946FFF744F993
:20678000F8E700BFFC0300202DE9F3414FF000081A4D2B681A6832B9194A1168136029606C
:2067A00002B0BDE8F081DB68DC681E68271D3846FEF779FF636A20469847E369012BE8D192
:2067C000A36933449E4206D26360246139462868FEF752FFDDE70023CDF8008032461946DE
:2067E0002046FFF7A5FF0028D3D14FF0500383F31188BFF36F8FBFF34F8FFEE7C80300201C
:20680000CC0300202DE9F04F6B4DDFF8BC812F4687B02B68D3F800B0BBF1000F47D0DB6899
:20682000D3F800A0FFF7D0FBFFF7D6FB634C81462368264698423CD2FFF7A6FFC4F8009029
:20684000FFF772FCDFF87C91002202A9D9F80000FFF73CF90028DCD0029B002B03DADDE9E8
:206860000401039B9847029B002BEDDB049C636913B1201DFEF717FFFFF7AEFB336883468B
:20688000984201D2FFF780FF029AC6F800B0092ADAD80123934013F4047A7AD113F0C70F47
:2068A00050D19B06D0D5204600F0BCFACCE7DA46B8E72060BBF1000F29D0824540D8FFF7EA
:2068C00033FC3B68DB68DC68201DFEF7ECFEE369012B18D1A16953464A4651442046FFF7BE
:2068E000E1FE80B100235246009319462046FFF71FFF40B94FF0500383F31188BFF36F8F17
:20690000BFF34F8FFEE7636A204698479AE72C4B1B681A68B2FA82F252092A4BAAEB090164
